{"abi":[{"type":"constructor","inputs":[{"name":"initialOwner","type":"address","internalType":"address"}],"stateMutability":"nonpayable"},{"type":"function","name":"acceptOwnership","inputs":[],"outputs":[],"stateMutability":"nonpayable"},{"type":"function","name":"claim","inputs":[{"name":"token","type":"address","internalType":"address"},{"name":"to","type":"address","internalType":"address"}],"outputs":[],"stateMutability":"nonpayable"},{"type":"function","name":"getTokenConfig","inputs":[{"name":"token","type":"address","internalType":"address"}],"outputs":[{"name":"","type":"tuple","internalType":"struct Faucet.TokenConfig","components":[{"name":"enabled","type":"bool","internalType":"bool"},{"name":"dropAmount","type":"uint128","internalType":"uint128"},{"name":"cooldownSeconds","type":"uint32","internalType":"uint32"}]}],"stateMutability":"view"},{"type":"function","name":"lastClaimAt","inputs":[{"name":"token","type":"address","internalType":"address"},{"name":"user","type":"address","internalType":"address"}],"outputs":[{"name":"","type":"uint64","internalType":"uint64"}],"stateMutability":"view"},{"type":"function","name":"nextClaimTime","inputs":[{"name":"token","type":"address","internalType":"address"},{"name":"user","type":"address","internalType":"address"}],"outputs":[{"name":"","type":"uint64","internalType":"uint64"}],"stateMutability":"view"},{"type":"function","name":"owner","inputs":[],"outputs":[{"name":"","type":"address","internalType":"address"}],"stateMutability":"view"},{"type":"function","name":"pause","inputs":[],"outputs":[],"stateMutability":"nonpayable"},{"type":"function","name":"paused","inputs":[],"outputs":[{"name":"","type":"bool","internalType":"bool"}],"stateMutability":"view"},{"type":"function","name":"pendingOwner","inputs":[],"outputs":[{"name":"","type":"address","internalType":"address"}],"stateMutability":"view"},{"type":"function","name":"renounceOwnership","inputs":[],"outputs":[],"stateMutability":"nonpayable"},{"type":"function","name":"secondsUntilNextClaim","inputs":[{"name":"token","type":"address","internalType":"address"},{"name":"user","type":"address","internalType":"address"}],"outputs":[{"name":"","type":"uint256","internalType":"uint256"}],"stateMutability":"view"},{"type":"function","name":"setTokenConfig","inputs":[{"name":"token","type":"address","internalType":"address"},{"name":"enabled","type":"bool","internalType":"bool"},{"name":"dropAmount","type":"uint256","internalType":"uint256"},{"name":"cooldownSeconds","type":"uint256","internalType":"uint256"}],"outputs":[],"stateMutability":"nonpayable"},{"type":"function","name":"tokenConfigs","inputs":[{"name":"token","type":"address","internalType":"address"}],"outputs":[{"name":"enabled","type":"bool","internalType":"bool"},{"name":"dropAmount","type":"uint128","internalType":"uint128"},{"name":"cooldownSeconds","type":"uint32","internalType":"uint32"}],"stateMutability":"view"},{"type":"function","name":"transferOwnership","inputs":[{"name":"newOwner","type":"address","internalType":"address"}],"outputs":[],"stateMutability":"nonpayable"},{"type":"function","name":"unpause","inputs":[],"outputs":[],"stateMutability":"nonpayable"},{"type":"function","name":"withdraw","inputs":[{"name":"token","type":"address","internalType":"address"},{"name":"to","type":"address","internalType":"address"},{"name":"amount","type":"uint256","internalType":"uint256"}],"outputs":[],"stateMutability":"nonpayable"},{"type":"event","name":"Claimed","inputs":[{"name":"user","type":"address","indexed":true,"internalType":"address"},{"name":"token","type":"address","indexed":true,"internalType":"address"},{"name":"to","type":"address","indexed":true,"internalType":"address"},{"name":"amount","type":"uint256","indexed":false,"internalType":"uint256"},{"name":"timestamp","type":"uint64","indexed":false,"internalType":"uint64"}],"anonymous":false},{"type":"event","name":"OwnershipTransferStarted","inputs":[{"name":"previousOwner","type":"address","indexed":true,"internalType":"address"},{"name":"newOwner","type":"address","indexed":true,"internalType":"address"}],"anonymous":false},{"type":"event","name":"OwnershipTransferred","inputs":[{"name":"previousOwner","type":"address","indexed":true,"internalType":"address"},{"name":"newOwner","type":"address","indexed":true,"internalType":"address"}],"anonymous":false},{"type":"event","name":"Paused","inputs":[{"name":"account","type":"address","indexed":false,"internalType":"address"}],"anonymous":false},{"type":"event","name":"TokenConfigured","inputs":[{"name":"token","type":"address","indexed":true,"internalType":"address"},{"name":"enabled","type":"bool","indexed":false,"internalType":"bool"},{"name":"dropAmount","type":"uint128","indexed":false,"internalType":"uint128"},{"name":"cooldownSeconds","type":"uint32","indexed":false,"internalType":"uint32"}],"anonymous":false},{"type":"event","name":"Unpaused","inputs":[{"name":"account","type":"address","indexed":false,"internalType":"address"}],"anonymous":false},{"type":"event","name":"Withdrawn","inputs":[{"name":"token","type":"address","indexed":true,"internalType":"address"},{"name":"to","type":"address","indexed":true,"internalType":"address"},{"name":"amount","type":"uint256","indexed":false,"internalType":"uint256"}],"anonymous":false},{"type":"error","name":"AddressEmptyCode","inputs":[{"name":"target","type":"address","internalType":"address"}]},{"type":"error","name":"AddressInsufficientBalance","inputs":[{"name":"account","type":"address","internalType":"address"}]},{"type":"error","name":"CooldownActive","inputs":[{"name":"secondsRemaining","type":"uint256","internalType":"uint256"}]},{"type":"error","name":"EnforcedPause","inputs":[]},{"type":"error","name":"ExpectedPause","inputs":[]},{"type":"error","name":"FailedInnerCall","inputs":[]},{"type":"error","name":"InsufficientFaucetBalance","inputs":[]},{"type":"error","name":"OwnableInvalidOwner","inputs":[{"name":"owner","type":"address","internalType":"address"}]},{"type":"error","name":"OwnableUnauthorizedAccount","inputs":[{"name":"account","type":"address","internalType":"address"}]},{"type":"error","name":"ReentrancyGuardReentrantCall","inputs":[]},{"type":"error","name":"SafeERC20FailedOperation","inputs":[{"name":"token","type":"address","internalType":"address"}]},{"type":"error","name":"TokenDisabled","inputs":[]}],"bytecode":{"object":"0x60806040523480156200001157600080fd5b506040516200154d3803806200154d83398101604081905262000034916200010d565b6001600160a01b038116156200004b57806200004d565b335b6001600160a01b0381166200007c57604051631e4fbdf760e01b81526000600482015260240160405180910390fd5b62000087816200009f565b50506001805460ff60a01b191681556002556200013f565b600180546001600160a01b0319169055620000ba81620000bd565b50565b600080546001600160a01b038381166001600160a01b0319831681178455604051919092169283917f8be0079c531659141344cd1fd0a4f28419497f9722a3daafe3b4186f6b6457e09190a35050565b6000602082840312156200012057600080fd5b81516001600160a01b03811681146200013857600080fd5b9392505050565b6113fe806200014f6000396000f3fe608060405234801561001057600080fd5b50600436106101005760003560e01c806379ba509711610097578063cb67e3b111610066578063cb67e3b1146102cd578063d9caed12146103a8578063e30c3978146103bb578063f2fde38b146103d957600080fd5b806379ba50971461025d5780638456cb59146102655780638da5cb5b1461026d5780639f3fc313146102ac57600080fd5b80633f4ba83a116100d35780633f4ba83a146101ea5780635c975abb146101f2578063702c11ac14610220578063715018a61461025557600080fd5b80631b69dc5f1461010557806321c0b3421461019657806333d8dc28146101ab5780633cd4aa8d146101be575b600080fd5b61015d610113366004611238565b60036020526000908152604090205460ff81169061010081046fffffffffffffffffffffffffffffffff169071010000000000000000000000000000000000900463ffffffff1683565b6040805193151584526fffffffffffffffffffffffffffffffff909216602084015263ffffffff16908201526060015b60405180910390f35b6101a96101a4366004611253565b6103ec565b005b6101a96101b9366004611294565b610745565b6101d16101cc366004611253565b61090a565b60405167ffffffffffffffff909116815260200161018d565b6101a96109da565b60015474010000000000000000000000000000000000000000900460ff16604051901515815260200161018d565b6101d161022e366004611253565b600460209081526000928352604080842090915290825290205467ffffffffffffffff1681565b6101a96109ec565b6101a96109fe565b6101a9610a75565b60005473ffffffffffffffffffffffffffffffffffffffff165b60405173ffffffffffffffffffffffffffffffffffffffff909116815260200161018d565b6102bf6102ba366004611253565b610a85565b60405190815260200161018d565b61036c6102db366004611238565b60408051606080820183526000808352602080840182905292840181905273ffffffffffffffffffffffffffffffffffffffff9490941684526003825292829020825193840183525460ff81161515845261010081046fffffffffffffffffffffffffffffffff169184019190915271010000000000000000000000000000000000900463ffffffff169082015290565b604080518251151581526020808401516fffffffffffffffffffffffffffffffff16908201529181015163ffffffff169082015260600161018d565b6101a96103b63660046112d8565b610ae6565b60015473ffffffffffffffffffffffffffffffffffffffff16610287565b6101a96103e7366004611238565b610bc4565b6103f4610c74565b6103fc610cc9565b73ffffffffffffffffffffffffffffffffffffffff811661041a5750335b73ffffffffffffffffffffffffffffffffffffffff82166000908152600360209081526040918290208251606081018452905460ff8116151580835261010082046fffffffffffffffffffffffffffffffff169383019390935271010000000000000000000000000000000000900463ffffffff16928101929092526104cc576040517f1931ea8500000000000000000000000000000000000000000000000000000000815260040160405180910390fd5b60006104d8843361090a565b905067ffffffffffffffff8116158015906104fc57508067ffffffffffffffff1642105b1561055857600061050d4283611314565b67ffffffffffffffff169050806040517fc1ab61a100000000000000000000000000000000000000000000000000000000815260040161054f91815260200190565b60405180910390fd5b60208201516fffffffffffffffffffffffffffffffff1660008190036105aa576040517f1931ea8500000000000000000000000000000000000000000000000000000000815260040160405180910390fd5b6040517f70a08231000000000000000000000000000000000000000000000000000000008152306004820152819073ffffffffffffffffffffffffffffffffffffffff8716906370a0823190602401602060405180830381865afa158015610616573d6000803e3d6000fd5b505050506040513d601f19601f8201168201806040525081019061063a9190611363565b1015610672576040517f25bab55300000000000000000000000000000000000000000000000000000000815260040160405180910390fd5b61069373ffffffffffffffffffffffffffffffffffffffff86168583610d0a565b73ffffffffffffffffffffffffffffffffffffffff8581166000818152600460209081526040808320338085529083529281902080547fffffffffffffffffffffffffffffffffffffffffffffffff0000000000000000164267ffffffffffffffff16908117909155815187815292830152938816937f59baf3c0562fcbc6aecb96c556c3905dea4f7dc6131cfea4737ee373e9f63adf910160405180910390a45050506107416001600255565b5050565b61074d610d97565b73ffffffffffffffffffffffffffffffffffffffff84166107ca576040517f08c379a000000000000000000000000000000000000000000000000000000000815260206004820152600f60248201527f544f4b454e5f5a45524f5f414444520000000000000000000000000000000000604482015260640161054f565b60408051606080820183528515158083526fffffffffffffffffffffffffffffffff868116602080860182815263ffffffff898116888a0181815273ffffffffffffffffffffffffffffffffffffffff8f166000818152600387528c90209a518b54955192517fffffffffffffffffffffffffffffff00000000000000000000000000000000009096169015157fffffffffffffffffffffffffffffff00000000000000000000000000000000ff16176101009290981691909102969096177fffffffffffffffffffffff00000000ffffffffffffffffffffffffffffffffff16710100000000000000000000000000000000009390921692909202179096558651938452830152938101929092527fe8c62281951b24f101157a5fefcc4b4e8a6df776a9ff4a32ae78ce58b09555b3910160405180910390a250505050565b73ffffffffffffffffffffffffffffffffffffffff82811660008181526003602090815260408083208151606081018352905460ff81161515825261010081046fffffffffffffffffffffffffffffffff168285015271010000000000000000000000000000000000900463ffffffff16818301529383526004825280832094861683529390529182205467ffffffffffffffff168015806109b45750604082015163ffffffff16155b156109c4576000925050506109d4565b60409091015163ffffffff160190505b92915050565b6109e2610d97565b6109ea610dea565b565b6109f4610d97565b6109ea6000610e67565b600154339073ffffffffffffffffffffffffffffffffffffffff168114610a69576040517f118cdaa700000000000000000000000000000000000000000000000000000000815273ffffffffffffffffffffffffffffffffffffffff8216600482015260240161054f565b610a7281610e67565b50565b610a7d610d97565b6109ea610e98565b600080610a92848461090a565b90508067ffffffffffffffff16600003610ab05760009150506109d4565b8067ffffffffffffffff16421015610ad157610acc4282611314565b610ad4565b60005b67ffffffffffffffff16949350505050565b610aee610d97565b610af6610cc9565b73ffffffffffffffffffffffffffffffffffffffff8216610b2d5760005473ffffffffffffffffffffffffffffffffffffffff1691505b610b4e73ffffffffffffffffffffffffffffffffffffffff84168383610d0a565b8173ffffffffffffffffffffffffffffffffffffffff168373ffffffffffffffffffffffffffffffffffffffff167fd1c19fbcd4551a5edfb66d43d2e337c04837afda3482b42bdf569a8fccdae5fb83604051610bad91815260200190565b60405180910390a3610bbf6001600255565b505050565b610bcc610d97565b6001805473ffffffffffffffffffffffffffffffffffffffff83167fffffffffffffffffffffffff00000000000000000000000000000000000000009091168117909155610c2f60005473ffffffffffffffffffffffffffffffffffffffff1690565b73ffffffffffffffffffffffffffffffffffffffff167f38d16b8cac22d99fc7c124b9cd0de2d3fa1faef420bfe791d8c362d765e2270060405160405180910390a350565b60015474010000000000000000000000000000000000000000900460ff16156109ea576040517fd93c066500000000000000000000000000000000000000000000000000000000815260040160405180910390fd5b6002805403610d04576040517f3ee5aeb500000000000000000000000000000000000000000000000000000000815260040160405180910390fd5b60028055565b6040805173ffffffffffffffffffffffffffffffffffffffff8416602482015260448082018490528251808303909101815260649091019091526020810180517bffffffffffffffffffffffffffffffffffffffffffffffffffffffff167fa9059cbb00000000000000000000000000000000000000000000000000000000179052610bbf908490610f07565b60005473ffffffffffffffffffffffffffffffffffffffff1633146109ea576040517f118cdaa700000000000000000000000000000000000000000000000000000000815233600482015260240161054f565b610df2610f9d565b600180547fffffffffffffffffffffff00ffffffffffffffffffffffffffffffffffffffff1690557f5db9ee0a495bf2e6ff9c91a7834c1ba4fdd244a5e8aa4e537bd38aeae4b073aa335b60405173ffffffffffffffffffffffffffffffffffffffff909116815260200160405180910390a1565b600180547fffffffffffffffffffffffff0000000000000000000000000000000000000000169055610a7281610ff1565b610ea0610c74565b600180547fffffffffffffffffffffff00ffffffffffffffffffffffffffffffffffffffff16740100000000000000000000000000000000000000001790557f62e78cea01bee320cd4e420270b5ea74000d11b0c9f74754ebdbfc544b05a258610e3d3390565b6000610f2973ffffffffffffffffffffffffffffffffffffffff841683611066565b90508051600014158015610f4e575080806020019051810190610f4c919061137c565b155b15610bbf576040517f5274afe700000000000000000000000000000000000000000000000000000000815273ffffffffffffffffffffffffffffffffffffffff8416600482015260240161054f565b60015474010000000000000000000000000000000000000000900460ff166109ea576040517f8dfc202b00000000000000000000000000000000000000000000000000000000815260040160405180910390fd5b6000805473ffffffffffffffffffffffffffffffffffffffff8381167fffffffffffffffffffffffff0000000000000000000000000000000000000000831681178455604051919092169283917f8be0079c531659141344cd1fd0a4f28419497f9722a3daafe3b4186f6b6457e09190a35050565b60606110748383600061107b565b9392505050565b6060814710156110b9576040517fcd78605900000000000000000000000000000000000000000000000000000000815230600482015260240161054f565b6000808573ffffffffffffffffffffffffffffffffffffffff1684866040516110e29190611399565b60006040518083038185875af1925050503d806000811461111f576040519150601f19603f3d011682016040523d82523d6000602084013e611124565b606091505b509150915061113486838361113e565b9695505050505050565b6060826111535761114e826111cd565b611074565b8151158015611177575073ffffffffffffffffffffffffffffffffffffffff84163b155b156111c6576040517f9996b31500000000000000000000000000000000000000000000000000000000815273ffffffffffffffffffffffffffffffffffffffff8516600482015260240161054f565b5080611074565b8051156111dd5780518082602001fd5b6040517f1425ea4200000000000000000000000000000000000000000000000000000000815260040160405180910390fd5b803573ffffffffffffffffffffffffffffffffffffffff8116811461123357600080fd5b919050565b60006020828403121561124a57600080fd5b6110748261120f565b6000806040838503121561126657600080fd5b61126f8361120f565b915061127d6020840161120f565b90509250929050565b8015158114610a7257600080fd5b600080600080608085870312156112aa57600080fd5b6112b38561120f565b935060208501356112c381611286565b93969395505050506040820135916060013590565b6000806000606084860312156112ed57600080fd5b6112f68461120f565b92506113046020850161120f565b9150604084013590509250925092565b67ffffffffffffffff82811682821603908082111561135c577f4e487b7100000000000000000000000000000000000000000000000000000000600052601160045260246000fd5b5092915050565b60006020828403121561137557600080fd5b5051919050565b60006020828403121561138e57600080fd5b815161107481611286565b6000825160005b818110156113ba57602081860181015185830152016113a0565b50600092019182525091905056fea2646970667358221220200bc2d52e41a3455a1f36ee44a35c6652e32ea046b99ada69fd6e90b07ed5e864736f6c63430008180033","linkReferences":{}},"methodIdentifiers":{"acceptOwnership()":"79ba5097","claim(address,address)":"21c0b342","getTokenConfig(address)":"cb67e3b1","lastClaimAt(address,address)":"702c11ac","nextClaimTime(address,address)":"3cd4aa8d","owner()":"8da5cb5b","pause()":"8456cb59","paused()":"5c975abb","pendingOwner()":"e30c3978","renounceOwnership()":"715018a6","secondsUntilNextClaim(address,address)":"9f3fc313","setTokenConfig(address,bool,uint256,uint256)":"33d8dc28","tokenConfigs(address)":"1b69dc5f","transferOwnership(address)":"f2fde38b","unpause()":"3f4ba83a","withdraw(address,address,uint256)":"d9caed12"},"id":28}